:020000040000FA
:08000000803102288731F22F44
:100B200024008F15080023008F01203090008D01D4
:100B30000800FE0012001E00FE0B9A2D00342F004C
:100B400096019701980199019A019B010800603074
:100B500031008D008F019101063093009201080051
:100B6000200018170D30890BB32D0000200018133A
:100B700008000034FF340034FF34FF340034FF3405
:100B8000003400348030270092007C309100C03067
:100B90009000303024009F040800013025009600AA
:100BA00095019701F930930092012E009011F430D5
:100BB00025009400080024000E1DE52D0E1071087C
:100BC0008D0070088C000E14080071088D007008EC
:100BD0008C000800013025009C0011309B00023081
:100BE0009D00F930990098012E009012F0302500F8
:100BF0009A0008006430F6000030F700863137268E
:100C0000853120002C08FA002D08FB002E08FC007E
:100C1000F001F00A7A3086319E2608005830F6003E
:100C20000230F70086313726863120003208FA007C
:100C30003308FB003408FC00F001F00A7A308631FA
:100C40009E260800D03024008F00900101309100D2
:100C50008D018C010D082000B60024000C08200036
:100C6000B5002E001010213024008E0008007708F7
:100C7000F9007608F800F936F80CF936F80C78081F
:100C80002700910076080339F8000530F835FF3E5B
:100C9000031D462E78359000080085319F2586314A
:100CA0008631C92686318531A72586318531932540
:100CB00086318531EA2586318531CD2586318631EB
:100CC000222686318531C2250800F401F501701C09
:100CD0006D2E7208F4077308F53D0130F235F30DFF
:100CE000890B6E2E0130F136F00C890B732E7008D3
:100CF0007104031D672E7508F1007408F0000800E8
:100D000024008E140C08F2007208FA000D08F2009C
:100D10007208F9007A08F200F3017908F400F5018D
:100D20007408F500F40172087404F7007308750480
:100D3000F8007808F1007708F0000800F6000130AC
:100D4000F002700A031908001830F1007108F5006C
:100D500075080739031DB72E76088600870101083C
:100D6000F1007108F4000130F1007108F607F41B7E
:100D7000BB2EC030BC2EFE30F2000030F3007208F3
:100D800023008C000310F40D0130F50203199F2E8F
:100D9000A82E2000960197019801FF309100DF30C6
:100DA000920037309300C7303E00CE00FF30C300C2
:100DB000FF30B800E501C401B901CF01BA01C50196
:100DC000D001FF30BB00FF30C600FF30D10015302E
:100DD0003D0093001330C50014303E00A3001530D1
:100DE0009D000F30A70014303D00C6000800200011
:100DF000A401A501200821040319272FA601A60A92
:100E0000A11B0C2F0130A035A10D890B032F013040
:100E1000FB007B08A607002F0130A435A50D890B28
:100E20000D2F21082302031D172F20082202031C67
:100E30001E2F2008A2022108A33B24140130A13652
:100E4000A00C890B1F2F0130A602031D0C2F2508B3
:100E5000A1002408A000080086314D268731853185
:100E6000C225873120001813A801A9018531B025BA
:100E700087312E0011100030F000F1008531DB25A4
:100E800087318531902587312E00111C442F743015
:100E90002000A0000030A100863180268731710833
:100EA0002000A3007008A2008631F72687312000B9
:100EB0002108AB002008AA0000302B020B300319D8
:100EC0002A020318672F86310E2687317A2F0030C9
:100ED0002B021F3003192A020318772F2B08FB005F
:100EE0002A08FA0028308731842787317A2F853104
:100EF000FA25873134302000A700F130890B7E2F8E
:100F0000A70B7E2F0032362F2000A5007A08E23E84
:100F1000FC00FF307B3DFD00FC09FD09FC0A0319C4
:100F2000FD0A7C08F0007D08F1001E30F200003060
:100F3000F3008631652687317108F7007008F600E6
:100F400086313726873120002F08A0003008A10005
:100F50003108A200250886008701403FFC00413F80
:100F6000FD00FC09FD092508860087017C08C03FBB
:100F70007D08C13F2508860087011600FF3AFC0066
:100F80001600FF3AFC04031DC82FA001A101A20115
:100F9000A301A4017B08F1007A08F0000B30F200F5
:100FA0000030F30086316526873171082000240265
:100FB000031DDC2F700823020318EC2F0B30FC00FC
:100FC0006230890BE12FFC0BE12F00320130200051
:100FD000A3070030A43DCA2FF001F00A203086316B
:100FE0009E260800B9308400853085002C308600AC
:100FF00000308700093085319925200087312C2F5A
:020000040001F9
:0A000E00EC3FFF3F9F3FFF3FFF3F25
:00000001FF
